{
  "_format": "hh-sol-artifact-1",
  "contractName": "ServiceStore",
  "sourceName": "contracts/ServiceStore.sol",
  "abi": [
    {
      "anonymous": false,
      "inputs": [
        {
          "indexed": true,
          "internalType": "address",
          "name": "serviceAddress",
          "type": "address"
        },
        {
          "indexed": false,
          "internalType": "string",
          "name": "name",
          "type": "string"
        }
      ],
      "name": "serviceCreated",
      "type": "event"
    },
    {
      "inputs": [],
      "name": "fetchServices",
      "outputs": [
        {
          "components": [
            {
              "internalType": "uint256",
              "name": "id",
              "type": "uint256"
            },
            {
              "internalType": "string",
              "name": "name",
              "type": "string"
            },
            {
              "internalType": "string",
              "name": "emailcustomer",
              "type": "string"
            },
            {
              "internalType": "string",
              "name": "emailfreelancer",
              "type": "string"
            },
            {
              "internalType": "string",
              "name": "date",
              "type": "string"
            },
            {
              "internalType": "uint256",
              "name": "price",
              "type": "uint256"
            },
            {
              "internalType": "string",
              "name": "description",
              "type": "string"
            },
            {
              "internalType": "address",
              "name": "serviceAddress",
              "type": "address"
            }
          ],
          "internalType": "struct ServiceStore.Service[]",
          "name": "",
          "type": "tuple[]"
        }
      ],
      "stateMutability": "view",
      "type": "function"
    },
    {
      "inputs": [
        {
          "internalType": "string",
          "name": "_name",
          "type": "string"
        },
        {
          "internalType": "string",
          "name": "_emailcustomer",
          "type": "string"
        },
        {
          "internalType": "string",
          "name": "_emailfreelancer",
          "type": "string"
        },
        {
          "internalType": "uint256",
          "name": "_price",
          "type": "uint256"
        },
        {
          "internalType": "string",
          "name": "_description",
          "type": "string"
        },
        {
          "internalType": "string",
          "name": "_date",
          "type": "string"
        }
      ],
      "name": "registerService",
      "outputs": [],
      "stateMutability": "nonpayable",
      "type": "function"
    }
  ],
  "bytecode": "0x608060405234801561001057600080fd5b50611052806100206000396000f3fe608060405234801561001057600080fd5b50600436106100365760003560e01c80637ce4c8d01461003b5780638bacf86414610057575b600080fd5b61005560048036038101906100509190610aa9565b610075565b005b61005f610455565b60405161006c9190610d9b565b60405180910390f35b600073ffffffffffffffffffffffffffffffffffffffff163373ffffffffffffffffffffffffffffffffffffffff1614156100af57600080fd5b6100b96000610928565b60006100c5600061093e565b9050600033905060006040518061010001604052808481526020018f8f8080601f016020809104026020016040519081016040528093929190818152602001838380828437600081840152601f19601f8201169050808301925050505050505081526020018d8d8080601f016020809104026020016040519081016040528093929190818152602001838380828437600081840152601f19601f8201169050808301925050505050505081526020018b8b8080601f016020809104026020016040519081016040528093929190818152602001838380828437600081840152601f19601f82011690508083019250505050505050815260200186868080601f016020809104026020016040519081016040528093929190818152602001838380828437600081840152601f19601f82011690508083019250505050505050815260200189815260200188888080601f016020809104026020016040519081016040528093929190818152602001838380828437600081840152601f19601f8201169050808301925050505050505081526020018373ffffffffffffffffffffffffffffffffffffffff16815250905080600160008473ffffffffffffffffffffffffffffffffffffffff1673ffffffffffffffffffffffffffffffffffffffff1681526020019081526020016000206000820151816000015560208201518160010190805190602001906102da92919061094c565b5060408201518160020190805190602001906102f792919061094c565b50606082015181600301908051906020019061031492919061094c565b50608082015181600401908051906020019061033192919061094c565b5060a0820151816005015560c082015181600601908051906020019061035892919061094c565b5060e08201518160070160006101000a81548173ffffffffffffffffffffffffffffffffffffffff021916908373ffffffffffffffffffffffffffffffffffffffff160217905550905050336002600085815260200190815260200160002060006101000a81548173ffffffffffffffffffffffffffffffffffffffff021916908373ffffffffffffffffffffffffffffffffffffffff1602179055508173ffffffffffffffffffffffffffffffffffffffff167f9f18f5f32e34f54f9ca9b293a3465cb922f15fb2c8da717289fb37a3b520169f8f8f60405161043d929190610dbd565b60405180910390a25050505050505050505050505050565b60606000610463600061093e565b905060008167ffffffffffffffff8111156104a7577f4e487b7100000000000000000000000000000000000000000000000000000000600052604160045260246000fd5b6040519080825280602002602001820160405280156104e057816020015b6104cd6109d2565b8152602001906001900390816104c55790505b50905060005b8281101561091f5760006001826104fd9190610e47565b90506000600160006002600085815260200190815260200160002060009054906101000a900473ffffffffffffffffffffffffffffffffffffffff1673ffffffffffffffffffffffffffffffffffffffff1673ffffffffffffffffffffffffffffffffffffffff168152602001908152602001600020604051806101000160405290816000820154815260200160018201805461059990610f1b565b80601f01602080910402602001604051908101604052809291908181526020018280546105c590610f1b565b80156106125780601f106105e757610100808354040283529160200191610612565b820191906000526020600020905b8154815290600101906020018083116105f557829003601f168201915b5050505050815260200160028201805461062b90610f1b565b80601f016020809104026020016040519081016040528092919081815260200182805461065790610f1b565b80156106a45780601f10610679576101008083540402835291602001916106a4565b820191906000526020600020905b81548152906001019060200180831161068757829003601f168201915b505050505081526020016003820180546106bd90610f1b565b80601f01602080910402602001604051908101604052809291908181526020018280546106e990610f1b565b80156107365780601f1061070b57610100808354040283529160200191610736565b820191906000526020600020905b81548152906001019060200180831161071957829003601f168201915b5050505050815260200160048201805461074f90610f1b565b80601f016020809104026020016040519081016040528092919081815260200182805461077b90610f1b565b80156107c85780601f1061079d576101008083540402835291602001916107c8565b820191906000526020600020905b8154815290600101906020018083116107ab57829003601f168201915b50505050508152602001600582015481526020016006820180546107eb90610f1b565b80601f016020809104026020016040519081016040528092919081815260200182805461081790610f1b565b80156108645780601f1061083957610100808354040283529160200191610864565b820191906000526020600020905b81548152906001019060200180831161084757829003601f168201915b505050505081526020016007820160009054906101000a900473ffffffffffffffffffffffffffffffffffffffff1673ffffffffffffffffffffffffffffffffffffffff1673ffffffffffffffffffffffffffffffffffffffff16815250509050808484815181106108ff577f4e487b7100000000000000000000000000000000000000000000000000000000600052603260045260246000fd5b60200260200101819052505050808061091790610f4d565b9150506104e6565b50809250505090565b6001816000016000828254019250508190555050565b600081600001549050919050565b82805461095890610f1b565b90600052602060002090601f01602090048101928261097a57600085556109c1565b82601f1061099357805160ff19168380011785556109c1565b828001600101855582156109c1579182015b828111156109c05782518255916020019190600101906109a5565b5b5090506109ce9190610a2d565b5090565b60405180610100016040528060008152602001606081526020016060815260200160608152602001606081526020016000815260200160608152602001600073ffffffffffffffffffffffffffffffffffffffff1681525090565b5b80821115610a46576000816000905550600101610a2e565b5090565b60008083601f840112610a5c57600080fd5b8235905067ffffffffffffffff811115610a7557600080fd5b602083019150836001820283011115610a8d57600080fd5b9250929050565b600081359050610aa381611005565b92915050565b600080600080600080600080600080600060c08c8e031215610aca57600080fd5b60008c013567ffffffffffffffff811115610ae457600080fd5b610af08e828f01610a4a565b9b509b505060208c013567ffffffffffffffff811115610b0f57600080fd5b610b1b8e828f01610a4a565b995099505060408c013567ffffffffffffffff811115610b3a57600080fd5b610b468e828f01610a4a565b97509750506060610b598e828f01610a94565b95505060808c013567ffffffffffffffff811115610b7657600080fd5b610b828e828f01610a4a565b945094505060a08c013567ffffffffffffffff811115610ba157600080fd5b610bad8e828f01610a4a565b92509250509295989b509295989b9093969950565b6000610bce8383610cc0565b905092915050565b610bdf81610e9d565b82525050565b6000610bf082610df1565b610bfa8185610e14565b935083602082028501610c0c85610de1565b8060005b85811015610c485784840389528151610c298582610bc2565b9450610c3483610e07565b925060208a01995050600181019050610c10565b50829750879550505050505092915050565b6000610c668385610e36565b9350610c73838584610ed9565b610c7c83610ff4565b840190509392505050565b6000610c9282610dfc565b610c9c8185610e25565b9350610cac818560208601610ee8565b610cb581610ff4565b840191505092915050565b600061010083016000830151610cd96000860182610d8c565b5060208301518482036020860152610cf18282610c87565b91505060408301518482036040860152610d0b8282610c87565b91505060608301518482036060860152610d258282610c87565b91505060808301518482036080860152610d3f8282610c87565b91505060a0830151610d5460a0860182610d8c565b5060c083015184820360c0860152610d6c8282610c87565b91505060e0830151610d8160e0860182610bd6565b508091505092915050565b610d9581610ecf565b82525050565b60006020820190508181036000830152610db58184610be5565b905092915050565b60006020820190508181036000830152610dd8818486610c5a565b90509392505050565b6000819050602082019050919050565b600081519050919050565b600081519050919050565b6000602082019050919050565b600082825260208201905092915050565b600082825260208201905092915050565b600082825260208201905092915050565b6000610e5282610ecf565b9150610e5d83610ecf565b9250827fffffffffffffffffffffffffffffffffffffffffffffffffffffffffffffffff03821115610e9257610e91610f96565b5b828201905092915050565b6000610ea882610eaf565b9050919050565b600073ffffffffffffffffffffffffffffffffffffffff82169050919050565b6000819050919050565b82818337600083830152505050565b60005b83811015610f06578082015181840152602081019050610eeb565b83811115610f15576000848401525b50505050565b60006002820490506001821680610f3357607f821691505b60208210811415610f4757610f46610fc5565b5b50919050565b6000610f5882610ecf565b91507fffffffffffffffffffffffffffffffffffffffffffffffffffffffffffffffff821415610f8b57610f8a610f96565b5b600182019050919050565b7f4e487b7100000000000000000000000000000000000000000000000000000000600052601160045260246000fd5b7f4e487b7100000000000000000000000000000000000000000000000000000000600052602260045260246000fd5b6000601f19601f8301169050919050565b61100e81610ecf565b811461101957600080fd5b5056fea26469706673582212207a4506ad2b10e04813b540385a303c3b164d69b2d068a641c18184b74c92e03c64736f6c63430008040033",
  "linkReferences": {},
  "deployedLinkReferences": {}
}