{
    "contractName": "ServiceStore",
    "abi": [
        {
            "anonymous": false,
            "inputs": [
                {
                    "indexed": true,
                    "internalType": "address",
                    "name": "serviceAddress",
                    "type": "address"
                },
                {
                    "indexed": false,
                    "internalType": "string",
                    "name": "name",
                    "type": "string"
                }
            ],
            "name": "serviceCreated",
            "type": "event"
        },
        {
            "inputs": [],
            "name": "fetchServices",
            "outputs": [
                {
                    "components": [
                        {
                            "internalType": "uint256",
                            "name": "id",
                            "type": "uint256"
                        },
                        {
                            "internalType": "string",
                            "name": "name",
                            "type": "string"
                        },
                        {
                            "internalType": "string",
                            "name": "emailcustomer",
                            "type": "string"
                        },
                        {
                            "internalType": "string",
                            "name": "emailfreelancer",
                            "type": "string"
                        },
                        {
                            "internalType": "string",
                            "name": "date",
                            "type": "string"
                        },
                        {
                            "internalType": "uint256",
                            "name": "price",
                            "type": "uint256"
                        },
                        {
                            "internalType": "string",
                            "name": "description",
                            "type": "string"
                        },
                        {
                            "internalType": "address",
                            "name": "serviceAddress",
                            "type": "address"
                        }
                    ],
                    "internalType": "struct ServiceStore.Service[]",
                    "name": "",
                    "type": "tuple[]"
                }
            ],
            "stateMutability": "view",
            "type": "function"
        },
        {
            "inputs": [
                {
                    "internalType": "string",
                    "name": "_name",
                    "type": "string"
                },
                {
                    "internalType": "string",
                    "name": "_emailcustomer",
                    "type": "string"
                },
                {
                    "internalType": "string",
                    "name": "_emailfreelancer",
                    "type": "string"
                },
                {
                    "internalType": "uint256",
                    "name": "_price",
                    "type": "uint256"
                },
                {
                    "internalType": "string",
                    "name": "_description",
                    "type": "string"
                },
                {
                    "internalType": "string",
                    "name": "_date",
                    "type": "string"
                }
            ],
            "name": "registerService",
            "outputs": [],
            "stateMutability": "nonpayable",
            "type": "function"
        }
    ],
    "bytecode": "608060405234801561001057600080fd5b50610bd6806100206000396000f3fe608060405234801561001057600080fd5b50600436106100365760003560e01c80637ce4c8d01461003b5780638bacf86414610050575b600080fd5b61004e61004936600461086f565b61006e565b005b610058610350565b60405161006591906109b9565b60405180910390f35b3361007857600080fd5b610086600080546001019055565b600080549050600033905060006040518061010001604052808481526020018f8f8080601f016020809104026020016040519081016040528093929190818152602001838380828437600081840152601f19601f8201169050808301925050505050505081526020018d8d8080601f016020809104026020016040519081016040528093929190818152602001838380828437600092019190915250505090825250604080516020601f8e018190048102820181019092528c815291810191908d908d9081908401838280828437600092019190915250505090825250604080516020601f89018190048102820181019092528781529181019190889088908190840183828082843760009201919091525050509082525060208082018b905260408051601f8b0183900483028101830182528a8152920191908a908a908190840183828082843760009201829052509385525050506001600160a01b0385166020928301819052815260018083526040909120835181558383015180519495508594919361021a9385019291019061078d565b506040820151805161023691600284019160209091019061078d565b506060820151805161025291600384019160209091019061078d565b506080820151805161026e91600484019160209091019061078d565b5060a0820151600582015560c0820151805161029491600684019160209091019061078d565b5060e08201518160070160006101000a8154816001600160a01b0302191690836001600160a01b03160217905550905050336002600085815260200190815260200160002060006101000a8154816001600160a01b0302191690836001600160a01b03160217905550816001600160a01b03167f9f18f5f32e34f54f9ca9b293a3465cb922f15fb2c8da717289fb37a3b520169f8f8f604051610338929190610ac4565b60405180910390a25050505050505050505050505050565b6060600061035d60005490565b905060008167ffffffffffffffff81111561037a5761037a610af3565b6040519080825280602002602001820160405280156103fc57816020015b6103e96040518061010001604052806000815260200160608152602001606081526020016060815260200160608152602001600081526020016060815260200160006001600160a01b031681525090565b8152602001906001900390816103985790505b50905060005b82811015610786576000610417826001610b1f565b6000818152600260209081526040808320546001600160a01b0316835260018083528184208251610100810190935280548352908101805495965093949193909284019161046490610b37565b80601f016020809104026020016040519081016040528092919081815260200182805461049090610b37565b80156104dd5780601f106104b2576101008083540402835291602001916104dd565b820191906000526020600020905b8154815290600101906020018083116104c057829003601f168201915b505050505081526020016002820180546104f690610b37565b80601f016020809104026020016040519081016040528092919081815260200182805461052290610b37565b801561056f5780601f106105445761010080835404028352916020019161056f565b820191906000526020600020905b81548152906001019060200180831161055257829003601f168201915b5050505050815260200160038201805461058890610b37565b80601f01602080910402602001604051908101604052809291908181526020018280546105b490610b37565b80156106015780601f106105d657610100808354040283529160200191610601565b820191906000526020600020905b8154815290600101906020018083116105e457829003601f168201915b5050505050815260200160048201805461061a90610b37565b80601f016020809104026020016040519081016040528092919081815260200182805461064690610b37565b80156106935780601f1061066857610100808354040283529160200191610693565b820191906000526020600020905b81548152906001019060200180831161067657829003601f168201915b50505050508152602001600582015481526020016006820180546106b690610b37565b80601f01602080910402602001604051908101604052809291908181526020018280546106e290610b37565b801561072f5780601f106107045761010080835404028352916020019161072f565b820191906000526020600020905b81548152906001019060200180831161071257829003601f168201915b5050509183525050600791909101546001600160a01b03166020909101528451909150819085908590811061076657610766610b71565b60200260200101819052505050808061077e90610b87565b915050610402565b5092915050565b82805461079990610b37565b90600052602060002090601f0160209004810192826107bb5760008555610801565b82601f106107d457805160ff1916838001178555610801565b82800160010185558215610801579182015b828111156108015782518255916020019190600101906107e6565b5061080d929150610811565b5090565b5b8082111561080d5760008155600101610812565b60008083601f84011261083857600080fd5b50813567ffffffffffffffff81111561085057600080fd5b60208301915083602082850101111561086857600080fd5b9250929050565b600080600080600080600080600080600060c08c8e03121561089057600080fd5b67ffffffffffffffff808d3511156108a757600080fd5b6108b48e8e358f01610826565b909c509a5060208d01358110156108ca57600080fd5b6108da8e60208f01358f01610826565b909a50985060408d01358110156108f057600080fd5b6109008e60408f01358f01610826565b909850965060608d0135955060808d013581101561091d57600080fd5b61092d8e60808f01358f01610826565b909550935060a08d013581101561094357600080fd5b506109548d60a08e01358e01610826565b81935080925050509295989b509295989b9093969950565b6000815180845260005b8181101561099257602081850181015186830182015201610976565b818111156109a4576000602083870101525b50601f01601f19169290920160200192915050565b60006020808301818452808551808352604092508286019150828160051b87010184880160005b83811015610ab657603f1989840301855281516101008151855288820151818a870152610a0f8287018261096c565b9150508782015185820389870152610a27828261096c565b91505060608083015186830382880152610a41838261096c565b9250505060808083015186830382880152610a5c838261096c565b9250505060a080830151818701525060c08083015186830382880152610a82838261096c565b9250505060e0808301519250610aa2818701846001600160a01b03169052565b5095880195935050908601906001016109e0565b509098975050505050505050565b60208152816020820152818360408301376000818301604090810191909152601f909201601f19160101919050565b634e487b7160e01b600052604160045260246000fd5b634e487b7160e01b600052601160045260246000fd5b60008219821115610b3257610b32610b09565b500190565b600181811c90821680610b4b57607f821691505b602082108103610b6b57634e487b7160e01b600052602260045260246000fd5b50919050565b634e487b7160e01b600052603260045260246000fd5b600060018201610b9957610b99610b09565b506001019056fea2646970667358221220448eae722de3ac00c2e5191b71886533fca3b2e617b21fba8b26c33bd74462f864736f6c634300080d0033",
    "sourcePath": "c:/Users/user/Desktop/pfa/PFA/pfa-front/contracts/Greeter.sol",
    "compiler": {
        "name": "solc",
        "version": "0.8.13+commit.abaa5c0e"
    },
    "functionHashes": {
        "fetchServices()": "8bacf864",
        "registerService(string,string,string,uint256,string,string)": "7ce4c8d0"
    },
    "gasEstimates": {
        "creation": {
            "codeDepositCost": "606000",
            "executionCost": "638",
            "totalCost": "606638"
        },
        "external": {
            "fetchServices()": "infinite",
            "registerService(string,string,string,uint256,string,string)": "infinite"
        }
    }
}